:100000000C9434000C9451000C9451000C94510049
:100010000C9451000C9451000C9451000C9451001C
:100020000C9451000C9451000C9451000C9451000C
:100030000C9451000C9451000C9451000C945100FC
:100040000C9451000C9451000C9451000C945100EC
:100050000C9451000C9451000C9451000C945100DC
:100060000C940C010C94510011241FBECFEFD8E06A
:10007000DEBFCDBF11E0A0E0B1E0EEE2F4E002C0EF
:1000800005900D92AE35B107D9F721E0AEE5B1E0AC
:1000900001C01D92AC36B207E1F70E944F010C94EB
:1000A00015020C9400008093690181E080936A013D
:1000B00008958091680181113FC0E09166018091AF
:1000C000650195E0E99FF0011124E80FF11DE25E62
:1000D000FE4F80818093BB0080916601823028F4BE
:1000E00080916501843039F404C0809165018330CA
:1000F00011F485E801C085EC8093BC008091650116
:100100008F5F8093650180916501853048F0109282
:10011000650180916601823018F481E0809363016B
:1001200080916601823051F580916501843031F50E
:1001300081E0809368011DC0E091640180916201BB
:1001400095E0E99FF0011124E80FF11DE050FF4F09
:1001500080818093BB00809162018F5F80936201F8
:1001600080916201853039F41092620185E88093B4
:10017000BC005F9A089585EC8093BC0008951092AE
:10018000C50085E08093C40088E08093C10086E0CC
:100190008093C20008959091C00095FFFCCF80939A
:1001A000C6000895CF93DF93EC018991882319F05D
:1001B0000E94CB00FACFDF91CF9108950E940501F4
:1001C000209A259A579A569A559A549A529A5F9A13
:1001D00010926B0169E570E083E590E00E94F30006
:1001E00088E10C94FC00909361018093600170930E
:1001F0005F0160935E010895F894880F8093BA00C0
:1002000085EC8093BC0078940895F8941092BC001B
:100210001092BA00789408951F920F920FB60F9221
:1002200011242F933F934F935F936F937F938F93FB
:100230009F93AF93BF93EF93FF938091B900887F13
:10024000803859F028F4811116C01092BC0013C0F8
:10025000883A59F0883B49F00EC08091BB00E0918C
:100260006001F0916101099506C0E0915E01F09195
:100270005F01099503C085EC8093BC00FF91EF916D
:10028000BF91AF919F918F917F916F915F914F91AE
:100290003F912F910F900FBE0F901F9018950E94C5
:1002A000DE000E94BF002FEF87ED90E021508040DC
:1002B0009040E1F700C000001092660110926501C5
:1002C00010926801289A5F9805EC85ECF82E95E06D
:1002D000E92EC1E0D2E023E0D22E14E08091630148
:1002E000882389F05F9A88E292E00197F1F700C0D5
:1002F00000000093BC005F98809166018F5F80933F
:10030000660110926301809167018823C1F09FEF1D
:1003100027E882E0915020408040E1F700C00000D3
:1003200080916701823011F4E0926401809167014D
:10033000813011F480936401109267015F9880917D
:100340006A01882359F2F092BC005F9810926A010A
:10035000809169018331B1F480916B01882319F098
:10036000C093640102C010926401C0936B0128988D
:100370008FEF9BE60197F1F700C000008DE291E05E
:100380000E94D20080916901893129F410926B0199
:10039000D0936401289A809169018531F1F4D0925B
:1003A000640185E391E00E94D2009FEF27ED80E099
:1003B000915020408040E1F700C000008DE391E0C3
:1003C0000E94D2009FEF27ED80E0915020408040B6
:1003D000E1F700C00000C093670180916901863198
:1003E00009F07CCF1093640185E491E00E94D20073
:1003F0008FEF91EA0197F1F700C000008DE491E0E2
:100400000E94D2008FEF91EA0197F1F700C000003F
:1004100085E591E00E94D2008FEF91EA0197F1F714
:0E04200000C00000D093670159CFF894FFCFC1
:10042E0004200403270420050328042001032404C8
:10043E002007032A042008032B0420060329041195
:10044E001092B3042001032403411253004154239C
:10045E0056550D0A004154234D440D0A00415423B4
:10046E0043450D0A004154234D450D0A00415423C6
:0E047E0043460D0A0041542343470D0A000077
:00000001FF
