:1000000019C033C032C031C030C02FC02EC02DC087
:100010002CC02BC02AC029C028C027C026C025C09C
:1000200024C023C022C021C020C01FC01EC01DC0CC
:100030001CC01BC011241FBECFEFD4E0DEBFCDBF5C
:1000400011E0A0E0B1E0ECE0F5E002C005900D9217
:10005000A837B107D9F721E0A8E7B1E001C01D92A8
:10006000AD38B207E1F75BD14FC2CACFE0E8F0E0AC
:10007000808182688083E1E8F0E08081896180830B
:1000800010928900109288008FEF90E09093870083
:10009000809386001092850010928400089510923B
:1000A000C5008CE08093C40088E08093C10086E0A6
:1000B0008093C20008959091C00095FFFCCF80937B
:1000C000C6000895CF93DF93EC018991882311F046
:1000D000F2DFFBCFDF91CF910895882371F095E097
:1000E0009A95F1F70000E0917A01F0E0E558FE4FB3
:1000F00090819F5F90838150F0CF0895D0CF20E012
:100100008FEF90E04A9B0FC0EFECF7E03197F1F7EB
:1001100000C000002F5F2B3FA8F3909389008093CD
:100120008800A895EFCF8FEF90E09093890080939F
:1001300088008FE99FE00197F1F700C00000089563
:100140004A9BFECF8FE99FE00197F1F700C00000C6
:100150004A99FECF87EC90E00197F1F700C00000CC
:100160004A9BFECF87EC90E00197F1F700C00000BA
:100170004A99FECF87EC90E00197F1F700C00000AC
:100180004A9BFECF87EC90E00197F1F700C000009A
:100190004A99FECF87EC90E00197F1F700C000008C
:1001A0004A9BFECF87EC90E00197F1F700C000007A
:1001B0004A99FECF87EC90E00197F1F700C000006C
:1001C000089580E0E82FF0E0E558FE4F10828F5F41
:1001D0008830C0F380E0E82FF0E0ED57FE4F10824A
:1001E0008F5F8A30C0F380937A01089510927A016C
:1001F00080917A01843030F54A990EC085E08A9565
:10020000F1F70000E0917A01F0E0E558FE4F8081BF
:100210008F5F80830000F0CF4A9B0EC085E08A95F7
:10022000F1F70000E0917A01F0E0E158FE4F8081A3
:100230008F5F80830000F0CF80917A018F5F809381
:100240007A01D6CF80E090E021E0E22FF0E0E5589F
:10025000FE4F3081830F911D2F5F2730B0F3209325
:100260007A01019666E070E03BD17093790160936A
:1002700078010895DF92EF92FF920F931F93CF932F
:10028000DF9380917801909179019695879525DF8C
:1002900003E811E0EE24E394F12CC7E0D0E0DD2484
:1002A000DA944A9908C0C7010C2E01C0880F0A943D
:1002B000EAF78095D822809178010FDF219788F79F
:1002C000F801D1928F01F1E00D381F0731F7DF916E
:1002D000CF911F910F91FF90EF90DF90089544E030
:1002E00051E080E090E0E3E8F1E020E030E061E020
:1002F0007191DA01A20FB31FAC91A71360E02F5FD9
:100300003F4F28303105A1F7613041F00196465F3B
:100310005F4F8430910539F78FEF9FEF0895BFDE6F
:100320002D9886E284B98CE291E0CCDE9FDE8FEFDF
:1003300090E090938900809388002DE088E190E020
:100340000FB6F894A895809360000FBE20936000CC
:10035000EE24EA94F12C35DFD2DEF2DEA89546DFFA
:1003600089DFBDDFEC0182E391E0ACDE2091780112
:1003700030917901207F332744E0369527954A95BF
:10038000E1F72A30310510F480E301C087E3820FE2
:1003900092DE80917801909179019C012F70332732
:1003A0008F702A30310510F4805D01C0895C83DED6
:1003B0008AE081DE86E491E085DE0BE711E06801EA
:1003C000F801808182958F70282F30E02A30310526
:1003D00014F4805D01C0895C6EDE0F5F1F4FF60173
:1003E00080818F70282F30E02A30310514F4805D31
:1003F00001C0895C60DE8CE25EDEF1E003381F073D
:10040000F1F68AE058DED7FF08C089E591E05ADEB0
:10041000F0928900E092880015C0FE01E050FF4F85
:10042000808190E090938900809388008DE691E030
:1004300049DE8C2FCA30D10514F4805D01C0895C7F
:100440003ADE2D9A8AE037DE03E811E080E333DEFE
:1004500088E731DE6801F801808182958F70282F4E
:1004600030E02A30310514F4805D01C0895C23DE60
:100470000F5F1F4FF60180818F70282F30E02A30E8
:10048000310514F4805D01C0895C15DE8CE213DE59
:1004900080E211DEF1E00D381F07C1F68AE00BDEC5
:1004A000D7FD1CC080E0C0E04A990FC0CF5FC630C6
:1004B00010F08DE301C081E2FEDDA8958FE39CE999
:1004C0000197F1F700C0000080E0EFECF7E0319712
:1004D000F1F700C000008F5F843630F32D983BCFDA
:1004E000AA1BBB1B51E107C0AA1FBB1FA617B7075A
:1004F00010F0A61BB70B881F991F5A95A9F7809576
:0C0500009095BC01CD010895F894FFCF48
:10050C000A28466477775D575555777777777777ED
:10051C005D5555577777777777775D5775D555D77D
:10052C00777777775D55D75575D7777748656C6C46
:10053C006F0043616C6962726174696F6E207075D3
:10054C006C73653A200043616C6962726174696F07
:10055C006E20696E666F3A20004E6F20636F6D6D72
:10056C00616E6420666F756E64203A2800436F6D6F
:08057C006D616E643A2000007D
:00000001FF
